:100000000C946C000C949C000C949D000C940000CB
:100010000C9400000C9400000C9400000C94000060
:100020000C9400000C9400000C9400000C94000050
:100030000C9400000C9400000C9400000C94000040
:100040000C9400000C9400000C9400000C94000030
:100050000C9400000C9400000C9400000C94000020
:100060000C9400000C9400000C9400000C94000010
:100070000C9400000C9400000C9400000C94000000
:100080000C9400000C9400000C940000412F4420BC
:10009000636F6E76657273696F6E00313662697474
:1000A0002044617461203D2025642C2025342E32AB
:1000B000665B765D00386269742044617461203D3E
:1000C0002025642C2025342E32665B765D0080C0AE
:1000D00002000005CE000000F894EE27ECBBF1E032
:1000E000F5BFE5BFE0936C008DE0A2E0BB27ED9388
:1000F0008A95E9F780E090E1A0E0B1E0ED93019707
:10010000E9F7E0EDF0E085919591009761F0A59118
:10011000B59105901590BF01F00105900D920197E2
:10012000E1F7FB01F0CF8BBFEFEFEDBFE0E1EEBFFA
:10013000C0E0D5E00C94AC0018951895AA93E8811E
:10014000E7B985E38A95F1F7369A349BFECF349A66
:10015000E4B1F5B10C94E201EF976197E0E0EABBFE
:10016000EBBBEFEFE7BBE0E0E8BBEFEFE4BBE0E0C9
:10017000E5BBE1BBE2BBE2B9E3B9E0936100E09328
:100180006200E0936400E0936500E0BFE3BFE2BF7C
:10019000E1BFEFBDEEBDEDBDECBDE7BDE6BDEBBD26
:1001A000EABDE9BDE8BDE0937900E0937800E5BDE4
:1001B000E4BDE3BDE0938B00E0938A00E093890007
:1001C000E0938800E0938100E0938000E093870053
:1001D000E0938600E0938500E0938400E093830041
:1001E000E0938200E7BFE0937D00E0936A00EABFFE
:1001F000E3E0E9BFE8BFE0E0EBB9E8E1EAB9E6E057
:10020000E0939500E0E0E0939000E7E6E9B9E0E0F4
:10021000E0939A00E0E8E8B9E0E0E7B9E4E8E6B99D
:10022000E0E0E0BDEDB9E0937400A0E1A3D0CED250
:10023000ACE8B0E08CD07894EAEAE8BBA0E07EDFDE
:100240005E2FC8D2EBE9F0E0FA93EA93E52FC6D22D
:10025000E52FC9D2BBD2DE016BD0E1E2E7B9E7EA14
:10026000E6B9E6B1A0E4E5D345B1B4D2E5EBF0E000
:10027000FA93EA93E42FB2D2E42FB5D2E0E0EA9306
:10028000A1E02AD0DE0154D0E5E5E8BBA4E6B0E069
:100290000AD3D2CFFFCFAA93E5B3EF70AE2FE88198
:1002A000E07FEA2BE5BB8BE18A95F1F7AA9A8BE117
:1002B0008A95F1F7AA988BE18A95F1F783C0AA9302
:1002C000A881E9DFE881E295E883A881E4DF88EC92
:1002D00090E00197F1F776C0AA93E881F0E0E05052
:1002E000FB4FE081A981AE0FEADF5980488022965A
:1002F0000895A2E085D2ACE0E2DFA1E081D2E0E0A7
:100300004E2E5E2E0895AA93A881AA3011F057149C
:1003100048F0E0E0EA934394A42DDEDFA881AA3000
:1003200009F450C05394A89AA881C9DFA8984AC07C
:10033000BA93AA931A93A981BA81ED91A983BA833A
:100340001E2FE03019F0A12FDEDFF5CF10C0BA93D9
:10035000AA931A93E981FA813196E983FA83319756
:10036000E4911E2FE03019F0A12FCDDFF3CF1881DB
:1003700023960895AA93E4B3E06FE4BBA29AA09AEF
:10038000A19AAA98A898A9987880E881E058E09363
:100390000205E881E054E0930305A4E1B0E083D2D4
:1003A00033D232D231D2A0E276DF80E991E00197F8
:1003B000F1F7A8E284DFA4E082DFA5E880DFA6E011
:1003C0007EDF97DF21960895BA93AA931A930A9332
:1003D000AA81BB8112965BD3309709F1AA81BB81B8
:1003E000149655D38F01309761F00230E0E01E077C
:1003F00078F0F80131978F01AA81BB811496ED93B3
:10040000FC93AA81BB81129606D23197AC81A0835E
:10041000AA81BB813CD3FF230AF0FDD106C0AA818B
:10042000BB81EFEFFFEFED93FC93198108812596D7
:100430000895BA93AA932C973DD310E0AA89BB895B
:10044000E0E0F0E0ED93FC93E88DF98D3196E88FD4
:10045000F98F3197E4912E2FE03009F46BC1E12F31
:10046000E03031F4253211F411E001C0DAD161C17C
:10047000E130B9F4253211F4D4D15AC112E0E0E0F0
:10048000E98B00E02D3211F401E053C12B3219F455
:10049000EBE2E98B4EC1203219F4E0E2E98B49C16D
:1004A00002C0E23039F450E013E0203311F4006868
:1004B00040C102C0E33091F4203310F02A3308F039
:1004C00007C0AAE05A9F502DE22FE0535E0F31C1C2
:1004D00040E02E3211F414E02CC10EC0E43091F44F
:1004E000203310F02A3308F007C0AAE04A9F402DBD
:1004F000E22FE0534E0F1DC12C3619F4026015E0B7
:1005000018C103C0E53009F014C1E22FE33639F415
:100510008FD1EE89FF89A481AA9390D109C1E337D5
:1005200029F486D191D139D11E2F07C0E03789F443
:100530007FD18AD13ED11E2F08600F77403011F055
:10054000411708F001C0142F40E0E0E0E88B30E0F4
:1005500062C0E43611F0E93611F4046002C0E537F8
:1005600091F4EAE0E88B01FF07C0E0E0FAEC6AE909
:100570007BE373D11AE01FC0E0E1F7E260E070E0D6
:100580006CD115E018C0E83511F4086003C0E837F5
:1005900009F0CEC0E0E1E88B01FF07C0E0E0F0E049
:1005A00060E070E15AD118E006C0E0E0F0E160E000
:1005B00070E053D114E0403011F00F7701C041E0FA
:1005C00001FF06C035D1AE89BF89149664D20AC036
:1005D00002FF04C02DD146D127D204C029D142D177
:1005E00066277727EC87FD876E877F8702FF12C01B
:1005F000AF85AA2342F4EC85FD856E857F850CD2FC
:1006000036D1EDE2E98BE989E03019F01F5F4F5FE9
:1006100001C00B7F342F00FD13C0151710F43517E0
:1006200008F00EC007FF08C002FF04C00B7F298935
:10063000115001C020E301C020E2F3D05150EDCFB2
:10064000141788F4006102FF06C016D1503009F07B
:10065000515011504150E0E3EA93F0D0503009F08E
:1006600051504150EDCF312FE889E030B1F43030B6
:1006700099F003FF06C0EE81FF812591EE83FF8391
:1006800005C0AE81BF812D91AE83BF83CAD05030EB
:1006900009F051503150EBCF42C0F2D0CFD12E2FC4
:1006A0002A3030F003FF02C0295C01C0295A01C082
:1006B000205D04FD1EC0213348F4EBD0A130E0E002
:1006C000BE07E0E08E07E0E09E0709F40BC0431789
:1006D00040F4531710F000FF01C00FC020E207FFE5
:1006E00008C020E3006102FF04C0C6D0503009F00A
:1006F000515097D0503009F051503150C1D0C3D132
:10070000B6D0E889C6D0FF276627772797D1A5D02E
:10071000E885F9856A857B85C9D109F0BECF00FFE0
:1007200007C0503029F05150E0E2EA9387D0F9CF6A
:1007300010E08ACEAA89BB89AAD1C3D16A9608954E
:10074000FF92F82E2697B8D1A9D0309719F4EFEF81
:10075000FFEF1FC0DE0116965BD18D019FD0EE83A7
:10076000FF83E0E0E887E987DE011A9651D18FD157
:10077000FA93EA931A930A93E4EEF1E0FA93EA9378
:10078000DE011A9656DE9F01AE81BF81E0E0EC9358
:10079000F90199D12A96FF900895BA93AA93A99145
:1007A000B991EE27FF276D91662311F03196FBCFAB
:1007B0000895BA93AA93AA27BB27E991F9910590C6
:1007C000002011F01196FBCFFD010895E0E0EA93BF
:1007D000A0E082CDFE01FA93EA930895FF276627F1
:1007E00077275FD10895F0E01FD196D0AAE0B7ED4A
:1007F00083EA9BE3BFD055D188E0A2DF2C96089511
:100800005EDDA3E0B0E04FC0A0E345DD80E991E00C
:100810000197F1F70895ED91FD913196FE93EE93D6
:1008200008952A93AB89BC89ED89FE8909950895BD
:10083000EE89FF893497EE8BFF8B0895AB89BC89D5
:10084000ED89FE8909950895AE89BF8914961FD157
:10085000EE83FF83AE81BF810895E887F9876A87B9
:100860007B870895AE89BF89149611D10895EC87CE
:10087000FD876E877F8708950B7FE989EA93DECF36
:10088000E885F9856A857B85AC85BD858E859F85E4
:100890000895A885B9858A859B850895DE011C96F3
:1008A000B7D0F5D00895109639F080EA9FE001970F
:1008B000F1F7A8951197C9F70895552342F45038D8
:1008C00011F4E0FF04C03196691F791F6BF050E806
:1008D000572711F45F933CC05F3F31F0660F000C67
:1008E00057956795752F08955F9300200AF03CC0D7
:1008F00035C050E8192E1522880F991F9527550FDE
:10090000879550E8072E0522660F771F7527550F2C
:1009100067950895689401C0E894309760407040EE
:10092000B1F0002426F0772312F4009475D0172E2E
:100930007EE1112032F07A95EE0FFF1F661F111C29
:10094000F9CFEF2FF62F612D5F93C1DF5F910895EF
:10095000EE27FF27662777275F910895EFEFFFEFD8
:100960006FE77FEF5F910895EFEFFFEF6FE77FE7AE
:100970005F9108955F93BDDF703851F3903841F374
:1009800001240894791F23F41CF300203AF3ECCFE0
:100990000F921F932F933F934F931127222799274D
:1009A000689FA0018F9F302D410D591F6B9F300D07
:1009B000411D591F8E9F27D0BF9F25D06A9F23D0EE
:1009C000BE9F1DD0AF9F1BD0AE9F110D291F391F99
:1009D000491F591FE32FF42F652F522F4F913F913D
:1009E0002F911F910F9066232AF0550FEE1FFF1FC6
:1009F000661F02C073954BF260DF5F910895100D82
:100A0000211D391F02C0200D311D491F591F089596
:100A10000024AF0DB01D0895F09560957095E19597
:100A2000FF4F6F4F7F4F08956F2F660F660B762F26
:100A30000895EA17E1E009F4EE2708953F934F93F4
:100A40005F93002411244427552730E2AA0FBB1FCF
:100A5000881F991F001C111C441F551F0E1A1F0AC6
:100A6000460B570B28F40E0E1F1E461F571F01C0C2
:100A7000A1603A9559F7FD01BC01D001CA015F910F
:100A80004F913F910895DADFFD01BC010895ED918A
:100A9000FC9111970895ED91FD916D917C911397C3
:100AA00008957A936A93FA93EA9308953097604091
:100AB000704008955A934A933A932A931A930A934B
:100AC00008955D814C813B812A81198108810895B7
:00000001FF
