:080000000C9461000C94000057
:100008000C9400000C9400000C9400000C94000068
:100018000C9400000C9400000C9400000C94000058
:100028000C9400000C9400000C9400000C94000048
:100038000C9400000C9400000C9400000C94000038
:100048000C9400000C9400000C9400000C94910097
:100058000C9400000C9400000C9400000C94000018
:100068000C9400000C9400000C9400000C94000008
:100078000C9400000C9400000C9400000C940000F8
:100088000C9400001027E80364000A000100001027
:10009800000110000100612F6420746573742E2E16
:1000A8000056523D25642C25342E32665B565D0081
:1000B80080C002000005B8000000F894EE27ECBBF1
:1000C800F1E0F5BFE5BFE0936C008DE0A2E0BB274F
:1000D800ED938A95E9F780E090E1A0E0B1E0ED9337
:1000E8000197E9F7EAEBF0E085919591009761F0C7
:1000F800A591B59105901590BF01F00105900D925D
:100108000197E1F7FB01F0CF8BBFEFEFEDBFE0E127
:10011800EEBFC0E0D5E00C94A30055B01895AA93A3
:10012800E881E062E7B985E38A95F1F7E5B7E37E10
:10013800E862E5BF8895EF7DE5BFE52D24C1EF971F
:100148006197E0E0EABBEBBBEFEFE7BBE0E0E8BBC1
:10015800E4BBE5BBE1BBE2BBE2B9E3B9E093610014
:10016800E0936200E0936400E0936500E0BFE3BFC2
:10017800E2BFE1BFEFBDEEBDEDBDECBDE7BDE6BD45
:10018800EBBDEABDE9BDE8BDE0937900E0937800F6
:10019800E5BDE4BDE3BDE0938B00E0938A00E09306
:1001A8008900E0938800E0938100E0938000E09369
:1001B8008700E0938600E0938500E0938400E09355
:1001C8008300E0938200E7BFE0937D00E0936A003C
:1001D800EABFE9BFEBB9E8E1EAB9E6E0E0939500E8
:1001E800E0E0E0939000E7E6E9B9E0E0E0939A0008
:1001F800E0E8E8B9E0E2E7B9ECE8E6B9E0E0E0BD5C
:10020800EDB9E0937400A0E196D07894A0E193D082
:1002180053D2AEE9B0E07CD0EAEA52D2A0E07FDF68
:100228001E2F4AD251D2E12F57D2E12F5AD2DE01E6
:1002380060D0E5E545D2A1E072DF0E2F5FD244D24F
:10024800E02F4AD2E02F4DD259D2DE0152D0A0ED94
:10025800B7E091D2E1CFFFCFAA93E5B3EF70AE2F0D
:10026800E881E07FEA2BE5BB8BE18A95F1F7AA9A52
:100278008BE18A95F1F7AA988BE18A95F1F783C00B
:10028800AA93A881E9DFE881E295E883A881E4DF01
:1002980088EC90E00197F1F776C0AA93E881F0E046
:1002A800E050FB4FE081A981AE0FEADF49807880FA
:1002B80022960895A2E026D2ACE0E2DFA1E022D2A5
:1002C800E0E07E2E4E2E0895AA93A881AA3011F060
:1002D800461448F0E0E0EA937394A72DDEDFA88186
:1002E800AA3009F450C04394A89AA881C9DFA898F5
:1002F8004AC0BA93AA931A93A981BA81ED91A983A6
:10030800BA831E2FE03019F0A12FDEDFF5CF10C021
:10031800BA93AA931A93E981FA813196E983FA8309
:100328003197E4911E2FE03019F0A12FCDDFF3CFE4
:10033800188123960895AA93E4B3E06FE4BBA29AC8
:10034800A09AA19AAA98A898A9986880E881E058E4
:10035800E0930205E881E054E0930305A4E1B0E0EE
:100368000AD2D4D1D3D1D2D1A0E276DF80E991E00C
:100378000197F1F7A8E284DFA4E082DFA5E880DF37
:10038800A6E07EDF97DF21960895BA93AA931A9381
:100398000A93AA81BB811296B8D2309709F1AA8133
:1003A800BB811496B2D28F01309761F00230E0E041
:1003B8001E0778F0F80131978F01AA81BB81149646
:1003C800ED93FC93AA81BB811296A7D13197AC819A
:1003D800A083AA81BB8199D2FF230AF09ED106C0CF
:1003E800AA81BB81EFEFFFEFED93FC9319810881A0
:1003F80025960895BA93AA93269794D210E0AC85CF
:10040800BD85E0E0F0E0ED93FC93EA89FB89319645
:10041800EA8BFB8B3197E4912E2FE03009F400C171
:10042800E12FE03031F4253211F411E001C07BD125
:10043800F6C0E130A1F4253211F475D1EFC012E015
:1004480040E000E02D3211F401E0E9C02B3211F454
:100458004BE2E5C0203211F440E2E1C002C0E230D4
:1004680039F450E013E0203311F40068D8C003C019
:10047800E33009F0D4C0203310F02A3308F007C065
:10048800AAE05A9F502DE22FE0535E0FC8C0E22F1A
:10049800E33639F44FD1E889F989A481AA9350D178
:1004A800BDC0E33729F446D151D1EDD01E2F07C086
:1004B800E03749F43FD14AD1F2D01E2F08600260DC
:1004C8000F7730E02FC0E43611F0E93611F40460FC
:1004D80002C0E53731F4ECE8F0E0EE83FF8315E085
:1004E8000CC0E83511F4086003C0E83709F096C07D
:1004F800E6E9F0E0EE83FF8314E002FF11C01AD1B1
:100508002ED1AB85AA2332F4EA85FB85EDD1EA87A3
:10051800FB874DE2403011F01F5F01C00B7F02C026
:1005280009D11DD100FD10C0151770F407FF08C0D0
:1005380002FF04C00B7F242F115001C020E301C02B
:1005480020E2F1D05150F0CF312F01FF16C03030EA
:1005580099F003FF06C0EE81FF812591EE83FF83AA
:1005680005C0AE81BF812D91AE83BF83DCD05030F2
:1005780009F051503150EBCF48C020E3EE81FF81A4
:10058800C8D1E887F987EE81FF813296EE83FF8331
:10059800E885F985AA85BB85AE17BF0750F02F5FA0
:1005A800A885B985EA85FB85EA1BFB0BEA87FB87EB
:1005B800EFCF2A3328F003FF02C0295F01C0295D6D
:1005C80004FD19C0213320F4A885B985119709F4D1
:1005D80009C0531710F000FF01C011C020E207FF47
:1005E8000AC020E3006102FF06C00B7F4A93A8D02F
:1005F800503009F0515097D0503009F051503150D7
:10060800A885B985129708F0B8CF00FF07C0503009
:1006180029F05150E0E2EA9393D0F9CF10E0F5CEFB
:10062800AC85BD8572D185D164960895FF92F82E68
:1006380026977AD19BD0309719F4EFEFFFEF1FC0C0
:10064800DE0116964DD18D0191D0EE83FF83E0E057
:10065800E887E987DE011A9643D157D1FA93EA93DE
:100668001A930A93E9ECF1E0FA93EA93DE011A96F9
:10067800C1DE9F01AE81BF81E0E0EC93F9015BD15F
:100688002A96FF900895BA93AA93A991B991EE2753
:10069800FF276D91662311F03196FBCF0895BA9329
:1006A800AA93AA27BB27E991F9910590002011F098
:1006B8001196FBCFFD010895E0E0EA93A0E0EDCDAF
:1006C800E8BBA4E6B0E057C0FE01FA93EA93E9EA72
:1006D800F0E0FA93EA930895FF27662777271DD15C
:1006E8000895F0E00DD180D0AAE0B7ED83EA9CE34D
:1006F800A9D013D188E09ADF2C960895E0E0EA9318
:10070800A1E0CBCDBDDDA3E0B0E035C0A0E3A4DD22
:1007180080E991E00197F1F70895ED91FD91319607
:10072800FE93EE9308952A93AD85BE85EF85F889EB
:1007380009950895E889F9893497E88BF98B089524
:10074800AD85BE85EF85F88909950895A889B98989
:100758001496DBD0EE83FF83AE81BF810895A8890C
:10076800B9891496D2D0EA87FB870895DE011C96D2
:10077800B7D0CBD00895109639F080EA9FE0019762
:10078800F1F7A8951197C9F70895552342F4503801
:1007980011F4E0FF04C03196691F791F6BF050E82F
:1007A800572711F45F933CC05F3F31F0660F000C90
:1007B80057956795752F08955F9300200AF03CC000
:1007C80035C050E8192E1522880F991F9527550F07
:1007D800879550E8072E0522660F771F7527550F56
:1007E80067950895689401C0E89430976040704018
:1007F800B1F0002426F0772312F4009479D0172E54
:100808007EE1112032F07A95EE0FFF1F661F111C52
:10081800F9CFEF2FF62F612D5F93C1DF5F91089518
:10082800EE27FF27662777275F910895EFEFFFEF01
:100838006FE77FEF5F910895EFEFFFEF6FE77FE7D7
:100848005F9108955F93BDDF703851F3903841F39D
:1008580001240894791F23F41CF300203AF3ECCF09
:100868000F921F932F933F934F9311272227992776
:10087800689FA0018F9F302D410D591F6B9F300D30
:10088800411D591F8E9F27D0BF9F25D06A9F23D017
:10089800BE9F1DD0AF9F1BD0AE9F110D291F391FC2
:1008A800491F591FE32FF42F652F522F4F913F9166
:1008B8002F911F910F9066232AF0550FEE1FFF1FEF
:1008C800661F02C073954BF260DF5F910895100DAB
:1008D800211D391F02C0200D311D491F591F0895C0
:1008E8000024AF0DB01D0895F195E195F0400895ED
:1008F800F09560957095E195FF4F6F4F7F4F089584
:100908006F2F660F660B762F0895ED91FC91119766
:1009180008950590F491E02D08957A936A93FA93D7
:10092800EA9308955A934A933A932A931A930A9307
:1009380008955D814C813B812A8119810881089540
:00000001FF
