:060000000C9473000C9447
:1000060000000C94A3000C9400000C9400000C94C7
:1000160000000C9400000C9400000C9400000C945A
:1000260000000C9400000C9400000C9400000C944A
:1000360000000C9400000C9400000C9400000C943A
:1000460000000C9400000C9400000C9400000C942A
:10005600A4000C9400000C9400000C9400000C9476
:1000660000000C9400000C9400000C9400000C940A
:1000760000000C9400000C9400000C9400000C94FA
:1000860000000C940000412F442054457374005620
:10009600523D25642C2025342E32665B565D005673
:1000A600523D25642C2025342E32665B565D0A0DA2
:1000B600004364733D25642C2025342E32665B563E
:1000C6005D004364733D25642C2025342E32665B27
:1000D600565D0A0D000080C002000005DC0000002D
:1000E600F894EE27ECBBF1E0F5BFE5BFE0936C00BA
:1000F6008DE0A2E0BB27ED938A95E9F780E090E1D9
:10010600A0E0B1E0ED930197E9F7EEEDF0E085911F
:100116009591009761F0A591B59105901590BF0155
:10012600F00105900D920197E1F7FB01F0CF8BBF2F
:10013600EFEFEDBFE0E1EEBFC0E0D5E00C94B70015
:10014600189555B01895AA93E881E062E7B985E35A
:100156008A95F1F7E5B7E37EE862E5BF8895EF7D1E
:10016600E5BFE52D0C94F201EF976197E0E0EABB5D
:10017600EBBBEFEFE7BBE0E0E8BBE4BBE5BBE1BB15
:10018600E2BBE2B9E3B9EFEFE0936100E0E0E093B0
:100196006200E0936400E0936500E0BFE3BFE2BF66
:1001A600E1BFEFBDEEBDEDBDECBDE7BDE6BDEBBD10
:1001B600EABDE9BDE8BDE0937900E0937800E5BDCE
:1001C600E4BDE3BDE0938B00E0938A00E0938900F1
:1001D600E0938800E0938100E0938000E09387003D
:1001E600E0938600E0938500E0938400E09383002B
:1001F600E0938200E7BFE0937D00E0936A00EABFE8
:10020600E3E0E9BFE8BFE0E0EAB9E0939A00E0E89E
:10021600E8B9E0E2E7B9ECE8E6B9E0E0E0BDEDB95F
:10022600E0937400A0E1ADD0FFD2ACE8B0E097D087
:100236007894EAEAFDD2A0E086DF0E2FFDD2E5E94A
:10024600F0E0FED2E02F04D3E5EAF0E0F9D284E054
:10025600B5D22696E9D2DE0172D0A4E6B0E068D324
:10026600A1E071DF3E2FE8D2E7EBF0E0FED2F0D25C
:10027600E8ECF0E0FAD2F0E01CD493D3A0E0B0E0D2
:1002860080E090E0BCD34DD488E098D22A96E0E096
:10029600EA93A1E028D0DE0152D0E5E5C9D2C9CF64
:1002A600FFCFAA93E5B3EF70AE2FE881E07FEA2B8C
:1002B600E5BB8BE18A95F1F7AA9A8BE18A95F1F76E
:1002C600AA988BE18A95F1F70C94F201AA93A8817A
:1002D600E8DFE881E295E883A881E3DF88EC90E037
:1002E6000197F1F77CC0AA93E881F0E0E050FB4F5C
:1002F600E081A981AE0FEADF4980788022960895D1
:10030600A2E0BCD2ACE0E2DFA1E0B8D2E0E07E2E13
:100316004E2E0895AA93A881AA3011F0461448F0EB
:10032600E0E0EA937394A72DDEDFA881AA3009F4F2
:1003360056C04394A89AA881C9DFA89850C0BA931A
:10034600AA931A93A981BA81ED91A983BA831E2F24
:10035600E03019F0A12FDEDFF5CF188149C0BA933E
:10036600AA931A93E981FA813196E983FA83319740
:10037600E4911E2FE03019F0A12FCCDFF3CF1881C6
:1003860037C0AA93E4B3E06FE4BBA29AA09AA19AFD
:10039600AA98A898A9986880E881E058E093020591
:1003A600E881E054E0930305A4E1B0E0C1D26AD24B
:1003B60069D268D2A0E275DF80E991E00197F1F792
:1003C600A8E284DFA4E082DFA5E880DFA6E07EDF86
:1003D60097DF05C0AA935D9BFECFE881ECB9219615
:1003E6000895BA93AA93AA81F5DFA881B98151D25B
:1003F60023960895BA93AA931A930A93AA81BB8166
:10040600129685D3309709F1AA81BB8114967FD3C2
:100416008F01309761F00230E0E01E0778F0F801B6
:1004260031978F01AA81BB811496ED93FC93AA8123
:10043600BB8112962ED23197AC81A083AA81BB8153
:1004460066D3FF230AF025D206C0AA81BB81EFEF4F
:10045600FFEFED93FC931981088125960895BA93D1
:10046600AA932C9767D310E0AA89BB89E0E0F0E055
:10047600ED93FC93E88DF98D3196E88FF98F3197DE
:10048600E4912E2FE03009F46BC1E12FE03031F416
:10049600253211F411E001C002D261C1E130B9F494
:1004A600253211F4FCD15AC112E0E0E0E98B00E0FC
:1004B6002D3211F401E053C12B3219F4EBE2E98B32
:1004C6004EC1203219F4E0E2E98B49C102C0E230A4
:1004D60039F450E013E0203311F4006840C102C043
:1004E600E33091F4203310F02A3308F007C0AAE075
:1004F6005A9F502DE22FE0535E0F31C140E02E325D
:1005060011F414E02CC10EC0E43091F4203310F045
:100516002A3308F007C0AAE04A9F402DE22FE05395
:100526004E0F1DC12C3619F4026015E018C103C028
:10053600E53009F014C1E22FE33639F4B7D1EE897C
:10054600FF89A481AA93B8D109C1E33729F4AED1B2
:10055600B9D151D11E2F07C0E03789F4A7D1B2D146
:1005660056D11E2F08600F77403011F0411708F062
:1005760001C0142F40E0E0E0E88B30E062C0E436D2
:1005860011F0E93611F4046002C0E53791F4EAE0AF
:10059600E88B01FF07C0E0E0FAEC6AE97BE39BD158
:1005A6001AE01FC0E0E1F7E260E070E094D115E0E8
:1005B60018C0E83511F4086003C0E83709F0CEC06A
:1005C600E0E1E88B01FF07C0E0E0F0E060E070E109
:1005D60082D118E006C0E0E0F0E160E070E07BD197
:1005E60014E0403011F00F7701C041E001FF06C072
:1005F6005DD1AE89BF8914968ED20AC002FF04C0AF
:1006060055D16ED156D204C051D16AD1662777270B
:10061600EC87FD876E877F8702FF12C0AF85AA230E
:1006260042F4EC85FD856E857F853BD25ED1EDE299
:10063600E98BE989E03019F01F5F4F5F01C00B7F3E
:10064600342F00FD13C0151710F4351708F00EC02F
:1006560007FF08C002FF04C00B7F2989115001C0A3
:1006660020E301C020E21BD15150EDCF141788F4CE
:10067600006102FF06C03ED1503009F051501150C2
:100686004150E0E3EA9318D1503009F051504150FF
:10069600EDCF312FE889E030B1F4303099F003FF27
:1006A60006C0EE81FF812591EE83FF8305C0AE81F2
:1006B600BF812D91AE83BF83F2D0503009F05150E7
:1006C6003150EBCF42C01AD1F9D12E2F2A3030F05B
:1006D60003FF02C0295C01C0295A01C0205D04FD48
:1006E6001EC0213348F413D1A130E0E0BE07E0E09C
:1006F6008E07E0E09E0709F40BC0431740F453173A
:1007060010F000FF01C00FC020E207FF08C020E381
:10071600006102FF04C0EED0503009F05150BFD046
:10072600503009F051503150E9D0EDD1DED0E88992
:10073600EED0FF2766277727C1D1CDD0E885F9858A
:100746006A857B85F3D109F0BECF00FF07C0503024
:1007560029F05150E0E2EA93AFD0F9CF10E08ACE0B
:10076600AA89BB89D4D1EDD16A960895FF92F82E55
:100776002697E2D1D1D0309719F4EFEFFFEF1AC0E8
:10078600DE0116968AD18D01C7D0EE83FF83E0E0A5
:10079600E887E987DE011A96C4D0EDEFF1E0FA9317
:1007A600EA93DE011A965BDE9F01AE81BF81E0E02F
:1007B600EC93F901C8D12A96FF900895FF92F82E7E
:1007C60026971A930A93DE01149667D18D01E0E00D
:1007D600EC83ED83EE83EF83DE011896A2D0E4EF7F
:1007E600F1E0FA93EA93DE01189639DE1981088161
:1007F6002896FF900895BA93AA93A991B991EE27E6
:10080600FF276D91662311F03196FBCF0895BA93B9
:10081600AA93AA27BB27E991F9910590002011F028
:100826001196FBCFFD010895E0E0EA93A0E05BCDD1
:10083600E8BBA4E6B0E07CC0FE01FA93EA93089513
:10084600FA93EA93E02FFF27662777276AD1089560
:10085600F0E02FD1A6D0AAE0B7ED83EA9CE3CFD093
:1008660060D188E083DF2C960895FA93EA93E32F0C
:10087600FF276627772755D1E32F089527DDA3E0C5
:10088600B0E056C0A0E30DDD80E991E00197F1F7F5
:100896000895ED91FD913196FE93EE9308952A9376
:1008A600AB89BC89ED89FE8909950895EE89FF8992
:1008B6003497EE8BFF8B0895AB89BC89ED89FE8951
:1008C60009950895AE89BF89149621D1EE83FF83D9
:1008D600AE81BF810895E887F9876A877B87089587
:1008E600AE89BF89149613D10895EC87FD876E876C
:1008F6007F8708950B7FE989EA93DECFE885F9853E
:100906006A857B85AC85BD858E859F850895A8857E
:10091600B9858A859B850895DE011C96BED0F7D0E1
:100926000895BBD0F4D0FA93EA931A930A930895E4
:10093600109639F080EA9FE00197F1F7A895119794
:10094600C9F70895552342F4503811F4E0FF04C066
:100956003196691F791F6BF050E8572711F45F93A2
:100966003CC05F3F31F0660F000C57956795752FB9
:1009760008955F9300200AF03CC035C050E8192E58
:100986001522880F991F9527550F879550E8072E32
:100996000522660F771F7527550F6795089568948A
:1009A60001C0E894309760407040B1F0002426F012
:1009B600772312F4009475D0172E7EE1112032F0C1
:1009C6007A95EE0FFF1F661F111CF9CFEF2FF62F3A
:1009D600612D5F93C1DF5F910895EE27FF2766279C
:1009E60077275F910895EFEFFFEF6FE77FEF5F9156
:1009F6000895EFEFFFEF6FE77FE75F9108955F934D
:100A0600BDDF703851F3903841F301240894791F03
:100A160023F41CF300203AF3ECCF0F921F932F938D
:100A26003F934F93112722279927689FA0018F9FF5
:100A3600302D410D591F6B9F300D411D591F8E9F43
:100A460027D0BF9F25D06A9F23D0BE9F1DD0AF9FC2
:100A56001BD0AE9F110D291F391F491F591FE32FA8
:100A6600F42F652F522F4F913F912F911F910F9089
:100A760066232AF0550FEE1FFF1F661F02C07395EF
:100A86004BF260DF5F910895100D211D391F02C0E2
:100A9600200D311D491F591F08950024AF0DB01DAB
:100AA6000895F09560957095E195FF4F6F4F7F4FD4
:100AB60008956F2F660F660B762F08953F934F9319
:100AC6005F93002411244427552730E2AA0FBB1F49
:100AD600881F991F001C111C441F551F0E1A1F0A40
:100AE600460B570B28F40E0E1F1E461F571F01C03C
:100AF600A1603A9559F7FD01BC01D001CA015F9189
:100B06004F913F910895DADFFD01BC010895ED9103
:100B1600FC9111970895ED91FD916D917C9113973C
:100B260008957A936A93FA93EA930895309760400A
:100B3600704008955A934A933A932A931A930A93C4
:100B460008955D814C813B812A8119810881089530
:00000001FF
