:020000000C945E
:1000020046000C9464000C9477000C9400000C944D
:1000120000000C9400000C9400000C9400000C945E
:1000220000000C9400000C9400000C9400000C944E
:1000320000000C9400000C9400000C9400000C943E
:1000420000000C9400000C9400000C9400000C942E
:1000520000000C9400000C9400000C9400000C941E
:1000620000000C9400000C9400000C9400000C940E
:1000720000000C9400000C9400000C9400000C94FE
:1000820000000C9400000C940000F894EE27ECBBE6
:10009200F1E0F5BFE5BFE0936C008DE0A2E0BB2785
:1000A200ED938A95E9F780E090E1A0E0B1E0ED936D
:1000B2000197E9F78BBFEFEFEDBFE0E1EEBFC0E0E4
:1000C200D5E00C9489009BD01A930A9300E010E0CB
:1000D2000330E0E01E073CF4E5E59FD0EAEA9DD05C
:1000E2000F5F1F4FF5CF0991199104C088D099D0A5
:1000F20098D097D0E991EFBFF991E991B991A9917F
:100102009991899179916991F9901990099018952D
:100112001FEFE0E0EABBEBBBEFEFE7BBE0E0E8BBE1
:10012200E4BBE5BBE1BBE2BBE2B9E3B9E09361004A
:10013200E0936200E0936400E0936500E0BFE3BFF8
:10014200E2BFE1BFEFBDEEBDEDBDECBDE7BDE6BD7B
:10015200EBBDEABDE9BDE8BDE0937900E09378002C
:10016200E5BDE4BDE3BDE0938B00E0938A00E0933C
:100172008900E0938800E0938100E0938000E0939F
:100182008700E0938600E0938500E0938400E0938B
:100192008300E0938200E7BFE0937D00E0936A0072
:1001A200EABFE3E0E9BFE8BFE0E0EAB9E0939A0022
:1001B200E0E8E8B9E0E0E0BDE6B9EDB9E09374004B
:1001C20078941FE720E030E02830E0E03E073CF47E
:1001D2002FD0EE0FE1601E2F2F5F3F4FF5CF1FE7AD
:1001E20020E030E02830E0E03E073CF421D0E69504
:1001F200E0681E2F2F5F3F4FF5CFE3CFFFCF0A926C
:100202001A92FA926A937A938A939A93AA93BA93D6
:10021200EA93FA93EFB7EA930895E8BBA4E6B0E055
:100222000DC0E0E0E8BBA4EFB1E008D0EFEFF5CFFE
:1002320018BBACE2B1E002D0E12F0895109639F07C
:1002420080EA9FE00197F1F7A8951197C9F7089501
:00000001FF
