:020000000C945E
:1000020085000C9400000C9400000C9400000C94E9
:1000120000000C9400000C9400000C9400000C945E
:1000220000000C9400000C9400000C9400000C944E
:1000320000000C9400000C9400000C9400000C943E
:1000420000000C9400000C9400000C9400000C942E
:1000520000000C9400000C9400000C9400000C941E
:1000620000000C9400000C9400000C9400000C940E
:1000720000000C9400000C9400000C9400000C94FE
:1000820000000C9400000C9400001027E8036400A8
:100092000A000100001000011000010041496F74C4
:1000A20020436C6173732121212121000000000093
:1000B200000000000000000000000000000000003E
:1000C200000000000000000000000000000000002E
:1000D200000000000000000000000000000000001E
:1000E20000000000000000000000000057656C6383
:1000F2006F6D6500446174613D202535640080C0E8
:100102000200000500010000F894EE27ECBBF1E0CC
:10011200F5BFE5BFE0936C008DE0A2E0BB27ED9355
:100122008A95E9F780E090E1A0E0B1E0ED930197D4
:10013200E9F7E2E0F1E085919591009761F0A591F0
:10014200B59105901590BF01F00105900D920197B0
:10015200E1F7FB01F0CF8BBFEFEFEDBFE0E1EEBFC8
:10016200C0E0D5E00C94B500EF97619780E5A0E080
:10017200B0E0EEE9F0E02DD3E0E0EABBEBBBEFEF5D
:10018200E7BBE0E0E8BBEFEFE7BBE8BBE0E0E4BBE6
:10019200E5BBE1BBE2BBE2B9E3B9E0936100E09306
:1001A2006200E0936400E0936500E0BFE3BFE2BF5A
:1001B200E1BFEFBDEEBDEDBDECBDE7BDE6BDEBBD04
:1001C200EABDE9BDE8BDE0937900E0937800E5BDC2
:1001D200E4BDE3BDE0938B00E0938A00E0938900E5
:1001E200E0938800E0938100E0938000E093870031
:1001F200E0938600E0938500E0938400E09383001F
:10020200E0938200E7BFE0937D00E0936A00EABFDB
:10021200E9BFEBB9E8E1EAB9E6E0E0939500E0E096
:10022200E0939000E7E6E9B9E0E0E0939A00E0E8C5
:10023200E8B9E0E0E0BDE6B9EDB9E0937400A0E111
:1002420092D0EFEFE4BBE0E0EA93A0E03ED0AEEE66
:10025200B0E076D049D2EAEA4DD2E5E54BD2FE01D2
:10026200FA93EA93E6EFF0E0FA93EA93F8010F5F6C
:100272001F4F8FD29BD284E0F1D1289635D2A4EFC2
:10028200B1E075D2E8CFFFCFAA93E5B3EF70AE2FFE
:10029200E881E07FEA2BE5BB8BE18A95F1F7AA9A28
:1002A2008BE18A95F1F7AA988BE18A95F1F783C0E1
:1002B200AA93A881E9DFE881E295E883A881E4DFD7
:1002C20088EC90E00197F1F776C0AA93E881F0E01C
:1002D200E050FB4FE081A981AE0FEADF59804880F0
:1002E20022960895A2E00AD2ACE0E2DFA1E006D2B3
:1002F200E0E04E2E5E2E0895AA93A881AA3011F056
:10030200571448F0E0E0EA934394A42DDEDFA8817D
:10031200AA3009F450C05394A89AA881C9DFA898BA
:100322004AC0BA93AA931A93A981BA81ED91A9837B
:10033200BA831E2FE03019F0A12FDEDFF5CF10C0F7
:10034200BA93AA931A93E981FA813196E983FA83DF
:100352003197E4911E2FE03019F0A12FCDDFF3CFBA
:10036200188123960895AA93E4B3E06FE4BBA29A9E
:10037200A09AA19AAA98A898A9987880E881E058AA
:10038200E0930205E881E054E0930305A4E1B0E0C4
:10039200EED1B8D1B7D1B6D1A0E276DF80E991E053
:1003A2000197F1F7A8E284DFA4E082DFA5E880DF0D
:1003B200A6E07EDF97DF21960895BA93AA931A9357
:1003C2000A93AA81BB811296E9D1309709F1AA81D9
:1003D200BB811496E3D18F01309761F00230E0E0E7
:1003E2001E0778F0F80131978F01AA81BB8114961C
:1003F200ED93FC93AA81BB8112968BD13197AC818C
:10040200A083AA81BB81CAD1FF230AF082D106C090
:10041200AA81BB81EFEFFFEFED93FC931981088175
:1004220025960895BA93AA932697C5D110E0AC8574
:10043200BD85E0E0F0E0ED93FC93EA89FB8931961B
:10044200EA8BFB8B3197E4912E2FE03009F400C147
:10045200E12FE03031F4253211F411E001C05FD117
:10046200F6C0E130A1F4253211F459D1EFC012E007
:1004720040E000E02D3211F401E0E9C02B3211F42A
:100482004BE2E5C0203211F440E2E1C002C0E230AA
:1004920039F450E013E0203311F40068D8C003C0EF
:1004A200E33009F0D4C0203310F02A3308F007C03B
:1004B200AAE05A9F502DE22FE0535E0FC8C0E22FF0
:1004C200E33639F433D1E889F989A481AA9334D186
:1004D200BDC0E33729F42AD135D1EDD01E2F07C094
:1004E200E03749F423D12ED1F2D01E2F08600260EA
:1004F2000F7730E02FC0E43611F0E93611F40460D2
:1005020002C0E53731F4ECE8F0E0EE83FF8315E05A
:100512000CC0E83511F4086003C0E83709F096C052
:10052200E6E9F0E0EE83FF8314E002FF11C0FED0A3
:1005320012D1AB85AA2332F4EA85FB8526D1EA875C
:10054200FB874DE2403011F01F5F01C00B7F02C0FC
:10055200EDD001D100FD10C0151770F407FF08C0DF
:1005620002FF04C00B7F242F115001C020E301C001
:1005720020E2D5D05150F0CF312F01FF16C03030DC
:1005820099F003FF06C0EE81FF812591EE83FF8380
:1005920005C0AE81BF812D91AE83BF83C0D05030E4
:1005A20009F051503150EBCF48C020E3EE81FF817A
:1005B200F9D0E887F987EE81FF813296EE83FF83D7
:1005C200E885F985AA85BB85AE17BF0750F02F5F76
:1005D200A885B985EA85FB85EA1BFB0BEA87FB87C1
:1005E200EFCF2A3328F003FF02C0295F01C0295D43
:1005F20004FD19C0213320F4A885B985119709F4A7
:1006020009C0531710F000FF01C011C020E207FF1C
:100612000AC020E3006102FF06C00B7F4A938CD020
:10062200503009F051507BD0503009F051503150C8
:10063200A885B985129708F0B8CF00FF07C05030DF
:1006420029F05150E0E2EA9377D0F9CF10E0F5CEED
:10065200AC85BD85A3D0B6D064960895FF92F82EDE
:100662002697ABD07FD0309719F4EFEFFFEF1FC082
:10067200DE01169686D08D0175D0EE83FF83E0E011
:10068200E887E987DE011A967CD088D0FA93EA934C
:100692001A930A93EEEDF1E0FA93EA93DE011A96C9
:1006A200C1DE9F01AE81BF81E0E0EC93F9018CD005
:1006B2002A96FF900895BA93AA93A991B991EE2729
:1006C200FF276D91662311F03196FBCF0895BA93FF
:1006D200AA93AA27BB27E991F9910590002011F06E
:1006E2001196FBCFFD010895E0E0EA93A1E0EDDD74
:1006F200DE0117CEE8BBA4E6B0E039C0D9DDA3E045
:10070200B0E035C0A0E3C0DD80E991E00197F1F7E8
:100712000895ED91FD913196FE93EE9308952A93FB
:10072200AD85BE85EF85F88909950895E889F9892F
:100732003497E88BF98B0895AD85BE85EF85F889EE
:1007420009950895A889B989149628D0EE83FF8364
:10075200AE81BF810895A889B98914961FD0EA870E
:10076200FB870895DE011C960CD018D008951096D0
:1007720039F080EA9FE00197F1F7A8951197C9F740
:1007820008950024AF0DB01D0895F195E195F04054
:1007920008956F2F660F660B762F0895ED91FC91E9
:1007A200119708950590F491E02D08957A936A9334
:1007B200FA93EA9308955A934A933A932A931A938F
:1007C2000A9308955D814C813B812A8119810881B8
:1007D2000895AC0FBD1F05900D928A95E1F708951B
:00000001FF
