:0C0000000C946C000C9400000C940000A8
:10000C000C9400000C9400000C9400000C94000064
:10001C000C9400000C9400000C9400000C94000054
:10002C000C9400000C9400000C9400000C94000044
:10003C000C9400000C9400000C9400000C94000034
:10004C000C9400000C9400000C9400000C94000024
:10005C000C9400000C9400000C9400000C94000014
:10006C000C9400000C9400000C9400000C94000004
:10007C000C9400000C9400000C9400000C940000F4
:10008C001027E80364000A000100001000011000B2
:10009C000100436F6E6E65637420737563657373D3
:1000AC000A0D0050726573732063206F7220640A0E
:1000BC000D00436F6D6D616E645B2533645D0A0DDD
:1000CC000025630025632D3E6F6B0000F894EE272E
:1000DC00ECBBF1E0F5BFE5BFE0936C008DE0A2E076
:1000EC00BB27ED938A95E9F780E090E1A0E0B1E0C1
:1000FC00ED930197E9F78BBFEFEFEDBFE0E1EEBFBA
:10010C00C0E0D5E00C948A001EEF20E030E0E0E087
:10011C00EABBEBBBEFEFE7BBE0E0E8BBE4BBE5BB66
:10012C00E1BBE2BBE2B9E3B9E0936100E0936200AA
:10013C00E0936400E0936500E0BFE3BFE2BFE1BF82
:10014C00EFBDEEBDEDBDECBDE7BDE6BDEBBDEABD63
:10015C00E9BDE8BDE0937900E0937800E5BDE4BD2E
:10016C00E3BDE0938B00E0938A00E0938900E09379
:10017C008800E0938100E0938000E0938700E09397
:10018C008600E0938500E0938400E0938300E09385
:10019C008200E7BFE0937D00E0936A00EABFE9BF0D
:1001AC00EBB9E8E1EAB9E6E0E0939500E0E0E09332
:1001BC009000E7E6E9B9E0E0E0939A00E0E8E8B9FE
:1001CC00E0E0E0BDE6B9EDB9E0937400EEE9F0E0F3
:1001DC0048D3EFEAF0E045D3809904C0EEEBF0E0B1
:1001EC0046D356C0EDECF0E0FA93EA93EDB7FEB7C8
:1001FC00BAD30F9384E0E1D226960F91E0EDF0E0B4
:10020C0036D3E02FF0E0E136A0E0FA0721F0E1343C
:10021C00A0E0FA0779F41EEF20E030E02830E0E0AF
:10022C003E073CF42FD3EE0FE1601E2F2F5F3F4FA4
:10023C00F5CF2EC0E236A0E0FA0721F0E234A0E0C0
:10024C00FA0779F41FE720E030E02830E0E03E07C1
:10025C003CF418D3E695E0681E2F2F5F3F4FF5CF87
:10026C0017C0E336A0E0FA0721F0E334A0E0FA0768
:10027C0071F420E030E02830E0E03E073CF4EAEA9C
:10028C0007D3E5E505D32F5F3F4FF5CF01C018BB72
:10029C00A3CFFFCF5F9BFECFECB10895AA935D9BDC
:1002AC00FECFE881ECB921960895BA93AA93AA815E
:1002BC00F5DFA881B981ED91FD913196FE93EE9316
:1002CC0023960895BA93AA93269754D310E0AC853D
:1002DC00BD85E0E0F0E0ED93FC93EA89FB89319673
:1002EC00EA8BFB8B3197E4912E2FE03009F400C19F
:1002FC00E12FE03031F4253211F411E001C0CCD201
:10030C00F6C0E130A1F4253211F4C6D2EFC012E0F0
:10031C0040E000E02D3211F401E0E9C02B3211F481
:10032C004BE2E5C0203211F440E2E1C002C0E23001
:10033C0039F450E013E0203311F40068D8C003C046
:10034C00E33009F0D4C0203310F02A3308F007C092
:10035C00AAE05A9F502DE22FE0535E0FC8C0E22F47
:10036C00E33639F4A0D2E889F989A481AA93A1D201
:10037C00BDC0E33729F497D2A2D25AD21E2F07C0A0
:10038C00E03749F490D29BD25FD21E2F08600260F6
:10039C000F7730E02FC0E43611F0E93611F4046029
:1003AC0002C0E53731F4ECE8F0E0EE83FF8315E0B2
:1003BC000CC0E83511F4086003C0E83709F096C0AA
:1003CC00E6E9F0E0EE83FF8314E002FF11C06BD28C
:1003DC007FD2AB85AA2332F4EA85FB85B0D2EA87BB
:1003EC00FB874DE2403011F01F5F01C00B7F02C054
:1003FC005AD26ED200FD10C0151770F407FF08C05A
:10040C0002FF04C00B7F242F115001C020E301C058
:10041C0020E242D25150F0CF312F01FF16C03030C4
:10042C0099F003FF06C0EE81FF812591EE83FF83D7
:10043C0005C0AE81BF812D91AE83BF832DD25030CC
:10044C0009F051503150EBCF48C020E3EE81FF81D1
:10045C0086D2E887F987EE81FF813296EE83FF839F
:10046C00E885F985AA85BB85AE17BF0750F02F5FCD
:10047C00A885B985EA85FB85EA1BFB0BEA87FB8718
:10048C00EFCF2A3328F003FF02C0295F01C0295D9A
:10049C0004FD19C0213320F4A885B985119709F4FE
:1004AC0009C0531710F000FF01C011C020E207FF74
:1004BC000AC020E3006102FF06C00B7F4A93F9D10A
:1004CC00503009F05150E8D1503009F051503150B2
:1004DC00A885B985129708F0B8CF00FF07C0503037
:1004EC0029F05150E0E2EA93E4D1F9CF10E0F5CED7
:1004FC00AC85BD8530D245D264960895FF92F82E16
:10050C0026971A930A93DE01149615D28D01E0E01A
:10051C00EC83ED83EE83EF83DE011896E0D1EBE5FF
:10052C00F1E0E4D1CFDE198108812896FF9008957F
:10053C00BA93AA931A93A981BA81E0E0EC93AB81A8
:10054C00BC81EC911E2FE03019F0E0E0EC9302C07E
:10055C00A1DE1E2FE12F188125960895FF92BA93E4
:10056C00AA93249707D2E0E0F0E0E887F9874E2FB2
:10057C00E889F9893196E88BF98B3197E4913E2F14
:10058C00E03009F414C1A32F39D1E030B9F0EDB744
:10059C00FEB7FA93EA934F93AED14F913E2FE030D2
:1005AC0021F0A32F2BD1E03009F406C0AAD11CF402
:1005BC00EFEFFFEFFEC0EBCF432FF8C0353209F061
:1005CC00DFC050E0E889F9893591E88BF98B30333D
:1005DC0010F03A3308F007C0AAE05A9F502DE32FD1
:1005EC00E0535E0FEFCF303009F4E1C0EDB7FEB74A
:1005FC00FA93EA934F937FD14F912E2FAE2FFED0CB
:10060C00E03031F07ED11CF4EFEFFFEFD2C0EECF33
:10061C00203009F4C3C0422F503009F45FEFE32FB0
:10062C00E33681F473D1EDB7FEB7FA93EA934F93A7
:10063C0062D14F91D801EC9364D11CF4EFEFFFEF32
:10064C00B8C098C0E33731F561D1E52F5150E03097
:10065C00E9F0EDB7FEB7FA93EA934F934CD14F9173
:10066C003E2FE03021F0A32FC9D0E03031F049D13A
:10067C001CF4EFEFFFEF9DC009C01F930F930F5FAA
:10068C001F4FE32FAF91BF91EC93DFCFD801E0E088
:10069C00EC9370C06894F1F8E894F2F8E32FE43628
:1006AC0011F0E93619F4E894F1F802C0E53711F4C9
:1006BC002AE008C0E83711F420E104C0E53209F45F
:1006CC005FC075C0E0E0EE83EF836894F0F8E52F2F
:1006DC005150E03009F441C0EDB7FEB7FA93EA93FC
:1006EC004F9309D14F913E2FE13230F40AD11CF4D3
:1006FC00EFEFFFEF5EC015C0F1FC08C06894F1F895
:10070C003D3211F4F2F8E3CF3B3209F3203129F4F6
:10071C00A32F7FD0E03029F008C0A32F66D0E030A3
:10072C0021F4F0FC44C0432F18C0313610F037557B
:10073C0005C0313410F0375301C03053E22FAE8175
:10074C00BF81F0E000D1DF01E32FF0E0EA0FFB1FE7
:10075C00EE83FF83E894F0F8BACFD8D0F2FE05C050
:10076C00EE81FF81ECD0EE83FF83EE81FF81D80117
:10077C00ED93FC93E885F9853196E887F98716C0E7
:10078C00EDB7FEB7FA93EA934F93B5D04F91E317B9
:10079C0069F0B7D01CF4EFEFFFEF0BC0E885F985DB
:1007AC00309719F4EFEFFFEF04C001C0E1CEE885FC
:1007BC00F985E7D06296FF900895FF92F82E239763
:1007CC001A930A93DE011196B6D08D01E0E0EB830B
:1007DC00EC83DE01159683D0EEE9F2E087D0BEDE25
:1007EC00198108812596FF900895AA93E1E0F9916B
:1007FC00F03310F0FA3308F0EE270895AA93E1E0F5
:10080C00F991F03229F0F93010F0FE3008F0EE27B3
:10081C000895AA93E1E0F991F05340F0FA3038F0E2
:10082C00FF75F750FA3010F0F03108F0EE2708950C
:10083C00BA93AA93A991B991EE27FF276D916623DC
:10084C0011F03196FBCF0895BA93AA93AA27BB2730
:10085C00E991F9910590002011F01196FBCFFD0163
:10086C000895FA93EA9380E049DE22960895FA936C
:10087C00EA93E02FFF276627772777D084E03EDEC8
:10088C002696089518BBACE2B1E04BD0E12F089549
:10089C00E8BBA4E6B0E045C02A93AD85BE85EF85E4
:1008AC00F88909950895E889F9893497E88BF98BCB
:1008BC000895AD85BE85EF85F88909950895A889B9
:1008CC00B989149648D0EE83FF83AE81BF81089519
:1008DC00A889B98914963FD0EA87FB8708952BD055
:1008EC003AD0FA93EA931A930A930895FA93EA93F7
:1008FC00DE0118960895AC85BD85EE85FF850995BA
:10090C000895AA85BB85AC91A0300895EE85FF852E
:10091C003497EE87FF87AE85BF8514960D911C9199
:10092C000895109639F080EA9FE00197F1F7A895A9
:10093C001197C9F708950024AF0DB01D0895F195D6
:10094C00E195F0400895FA9FF02DEB9FF00DEA9F92
:10095C00E02DF10D0895ED91FC91119708950590FE
:10096C00F491E02D089560E070E07A936A93FA9325
:10097C00EA9308955A934A933A932A931A930A93B3
:10098C0008955D814C813B812A81198108810895EC
:00000001FF
