:0A0000000C9446000C9400000C94D0
:10000A0000000C9400000C9400000C9400000C9466
:10001A0000000C9400000C9400000C9400000C9456
:10002A0000000C9400000C9400000C9400000C9446
:10003A0000000C9400000C9400000C9400000C9436
:10004A0000000C9400000C9400000C9400000C9426
:10005A0000000C9400000C9400000C9400000C9416
:10006A0000000C9400000C9400000C9400000C9406
:10007A0000000C9400000C9400000C9400000C94F6
:10008A000000F894EE27ECBBF1E0F5BFE5BFE09382
:10009A006C008DE0A2E0BB27ED938A95E9F780E03A
:1000AA0090E1A0E0B1E0ED930197E9F78BBFEFEFA4
:1000BA00EDBFE0E1EEBFC0E0D5E00C9464003FEF95
:1000CA00E0E0EABBEBBBEFEFE7BBE0E0E8BBE4BB99
:1000DA00E5BBE1BBE2BBE2B9E3B9E0936100E093BF
:1000EA006200E0936400E0936500E0BFE3BFE2BF13
:1000FA00E1BFEFBDEEBDEDBDECBDE7BDE6BDEBBDBD
:10010A00EABDE9BDE8BDE0937900E0937800E5BD7A
:10011A00E4BDE3BDE0938B00E0938A00E09389009D
:10012A00E0938800E0938100E0938000E0938700E9
:10013A00E0938600E0938500E0938400E0938300D7
:10014A00E0938200E7BFE0937D00E0936A00EABF94
:10015A00E9BFEAB9E0939A00E0E8E8B9E0E0E0BD77
:10016A00E6B9EDB9E0937400EFEFE7BBE0E0E1BB7D
:10017A0080990FC03EEF00E010E00830E0E01E0773
:10018A003CF41ED0EE0FE1603E2F0F5F1F4FF5CFFC
:10019A0002C0EFEFE8BB81990FC03FE700E010E033
:1001AA000830E0E01E073CF40BD0E695E0683E2FED
:1001BA000F5F1F4FF5CF02C0EFEFE8BBD9CFFFCFDC
:1001CA0038BBACE2B1E002D0E32F0895109639F0C3
:1001DA0080EA9FE00197F1F7A8951197C9F708956A
:00000001FF
